:100000005CC0000082C0000080C000007EC0000014
:100010007CC000007AC0000078C0000076C00000FC
:1000200074C0000072C0000070C000006EC000000C
:100030006CC000000C94D32268C0000066C00000B1
:100040000C94872662C000000C943E290C94702901
:100050005CC000005AC0000058C0000056C000003C
:1000600054C0000052C0000000000008000201005F
:100070000003040700000000000000000102040863
:100080001020408001020408102001020408102002
:10009000040404040404040402020202020203032E
:1000A0000303030300000000250028002B000000CC
:1000B0000000240027002A00952911241FBECFEF3D
:1000C000D8E0DEBFCDBF11E0A0E0B1E0EEEAF4E59C
:1000D00002C005900D92A03DB107D9F725E0A0ED33
:1000E000B1E001C01D92AD30B207E1F710E0CDE5FF
:1000F000D0E004C02197FE010E94262ACC35D1070A
:10010000C9F70E94EA230C94552A7ACFCF93DF9344
:10011000882349F0EB0181500E94672799838883E7
:10012000DF91CF910895FB0111821082F9CF0F93D7
:100130001F938B019C0183E03695279517950795B2
:100140008A95D1F700531E4F462F477021E030E0CB
:10015000F90102C0EE0FFF1F4A95E2F7AF01F80167
:1001600020812423CB010196211102C090E080E080
:100170001F910F9108950F931F938B019C0183E0B2
:1001800036952795179507958A95D1F7677081E081
:1001900090E001C0880F6A95EAF7F801E053FE4F3E
:1001A0002081452B31F48095822380831F910F910C
:1001B0000895822BFACFCF92DF92EF92FF92CF93E6
:1001C000DF936B017C0160E08EE0C816D104E1048E
:1001D000F10490F48EE08C0D0E94AB27E60121968D
:1001E000AE01C701B601C7DFCE01DF91CF91FF900D
:1001F000EF90DF90CF9008958C2DEECF882341F0C3
:100200008150682F70E090E080E050E040E0B3CF94
:100210000895611102C00C94AB276130E1F362E0F4
:10022000FACF662319F061E00C94E72760E0FCCF79
:1002300090E080E008950F931F93009709F487C022
:100240006115710509F483C0009112011091130129
:1002500020911401309115010E3F1F4F2F4F3F4F3A
:1002600009F066C04FEF5FEFBA014093120150935F
:100270001301609314017093150140911201509184
:1002800013016091140170911501DC011296ED913A
:10029000FC9180819181A281B381809347029093E8
:1002A0004802A0934902B0934A0284819581A681B5
:1002B000B7818093430290934402A0934502B09388
:1002C000460280859185A285B38580933F029093F5
:1002D0004002A0934102B093420284859585A68591
:1002E000B78580933B0290933C02A0933D02B0936C
:1002F0003E02109237021092380210923902109288
:100300003A025AD581E097E09093DA018093D901BF
:100310009093DC018093DB013ED4009731F421E01F
:1003200030E030934C0220934B021F910F910895BF
:1003300000911201109113012091140130911501C7
:10034000DB010D931D932D933C93139796CF8FEF65
:100350009FEFEBCF8F929F92AF92BF92CF92DF929F
:10036000EF92FF921F93CF93DF934B015C011091AB
:100370004E0282E090E090934C0280934B028114F5
:100380009104A104B10441F480914E02811104C092
:1003900080914D02C1E08111C0E0C12CD12C7601C9
:1003A00080914E02811106C080914D02811102C0E0
:1003B000CC23D9F083E090E090934C0280934B02E1
:1003C000CC2379F1CCE9DFEF111102C00E94650A5C
:1003D000CE01DF91CF911F91FF90EF90DF90CF90F2
:1003E000BF90AF909F908F9008956AE070E080E09A
:1003F00090E00E94F62680E1C80E87E2D81EE11C3C
:10040000F11C8FEF88169806A806B80631F0C1E0F7
:100410008C149D04AE04BF0408F0C0E080E0EFD36C
:10042000BFCFD0E0C0E0D0CFCF92DF92EF92FF926B
:100430000F931F93CF93DF938F3F910511F008F037
:1004400050C020914B0230914C022330310539F0DD
:1004500020914B0230914C022130310531F424E0DF
:1004600030E030934C0220934B026A017B01EC0197
:1004700082309105A0F011E0AE01C701B6018AD328
:10048000AB01BC01CE011123F9F0DF91CF911F9197
:100490000F91FF90EF90DF90CF900C948E0C8C0119
:1004A000000F111F07521E4FD8018D919C91892B6F
:1004B00011F30E94980C0297F1F6D801ED91FC918E
:1004C000CE010995182FD8CF0E94B00C90E080E0A3
:1004D000DF91CF911F910F91FF90EF90DF90CF9020
:1004E00008958FEF9FEFF4CF80E089C3CF93DF9320
:1004F00086E090E090934C0280934B02D9D3EC01BC
:10050000E9EDF1E084E0DF011D928A95E9F775D706
:1005100010924C0210924B02CE01DF91CF910895C0
:1005200080914D02089580913602089560931201E2
:1005300070931301809314019093150190E080E073
:100540000895CF92DF92EF92FF926B017C019F772B
:1005500020E030E040E859E50E94EB2487FF2BC003
:1005600020E030E040E05FE3C701B6010E942026B2
:1005700087FD0EC020E030E040E05FE3C701B60138
:100580000E947424FF90EF90DF90CF900C94582538
:1005900020E030E040E05FEBC701B6010E9420267A
:1005A000181684F420E030E0A901C701B6010E94CA
:1005B00024266B017C01C701B601FF90EF90DF900C
:1005C000CF90089520E030E040E05FE3C701B6013E
:1005D0000E947324FF90EF90DF90CF900C94D8246A
:1005E0004F925F926F927F928F929F92AF92BF9243
:1005F000CF92DF92EF92FF92CF93DF9300D0CDB7EF
:10060000DEB720910401309105014091060150911F
:100610000701609105027091060280910702909196
:1006200008020E94EB2487FFE3C0809108019091AB
:100630000901A0910A01B0910B018093E904909304
:10064000EA04A093EB04B093EC046091E904709188
:10065000EA048091EB049091EC0473DF6B017C0160
:1006600020E030E040E853E40E94EB246FEF87FF86
:100670000EC020E030E0A901C701B6010E9420268B
:1006800060E087FD04C0C701B6010E94EF2487E047
:10069000C8DDC0900001D0900101E0900201F0900F
:1006A0000301A70196016091F9047091FA04809109
:1006B000FB049091FC040E94EB24882341F0C0923B
:1006C000F904D092FA04E092FB04F092FC0462E197
:1006D00070E080E090E02BDD9093F8048093F704C5
:1006E00043E050E0BE016F5F7F4F10DD20911001AD
:1006F00030911101A981BA810E942C2A6093ED04E6
:100700007093EE048093EF049093F004C09009027C
:10071000D0900A02E0900B02F0900C028FEFC81A02
:10072000D80AE80AF80AC0920902D0920A02E092B6
:100730000B02F0920C02C114D104E104F10499F40B
:1007400080910D0290910E02A0910F02B0911002C3
:100750000196A11DB11D80930D0290930E02A093EE
:100760000F02B09310028090110290901202A0909C
:100770001302B090140260910D0270910E028091EC
:100780000F02909110020E941B25A50194010E9466
:10079000242620E030E040E85FE40E9424262B017C
:1007A0003C01C701B6010E941B25A50194010E94CE
:1007B00024269B01AC01C301B2010E947424609302
:1007C00005027093060280930702909308020F902F
:1007D0000F90DF91CF91FF90EF90DF90CF90BF907F
:1007E000AF909F908F907F906F905F904F90089503
:1007F00080910C0190910D01A0910E01B0910F011B
:100800001CCFCF92DF92EF92FF921F93CF93DF9393
:10081000EFEEF1E08BE2DF011D928A95E9F780E0CF
:1008200090E0A0E2B1E486A397A3A0A7B1A78FE6CA
:1008300092E1A3E8BAE382A393A3A4A3B5A386E7B6
:1008400097E3AEE5BBEE84839583A683B78382E608
:100850009BE9A8EAB2E580879187A287B38786ECF7
:1008600099EDA7E7BCE484879587A687B7878BE4D3
:1008700090EBA2EDBCE1808B918BA28BB38BA3EEAE
:10088000B1E0B383A283EDEDF1E01196FC93EE931A
:100890008CE391E091838083938382839583848327
:1008A00083E092E015969C938E93149783EF91E0EA
:1008B00013969C938E93129785E092E017969C93E3
:1008C0008E931697E9EEF4E088E0DF011D928A9599
:1008D000E9F7C1EFD4E08AE1FE0111928A95E9F7C8
:1008E00011E0188FC12CD12C7601C394CD86DE8601
:1008F000EF86F88A61E087E08CDC198B1882198F0B
:100900008091000190910101A0910201B091030139
:1009100088879987AA87BB87C982DA82EB82FC82A3
:1009200062E170E080E090E046DC9F838E831D836F
:10093000DF91CF911F91FF90EF90DF90CF900895BE
:100940008091FD04811103C081E08093FD048091BA
:10095000F10481111DC081E08093F1048091F204C3
:100960009091F304A091F404B091F5040197A105CE
:10097000B10571F48091F604882351F062E170E0D2
:1009800080E090E0D4DB9093F8048093F70436CCB9
:1009900008954F925F926F927F928F929F92AF9243
:1009A000BF92CF92DF92EF92FF920F931F93F89432
:1009B00040902602509027026090280270902902F1
:1009C000C0901A02D0901B02E0901C02F0901D0211
:1009D000452B09F0A4C09B01AC0124193509460937
:1009E000570929013A010091220210912302209116
:1009F00024023091250248015901840C951CA61C43
:100A0000B71C80169106A206B306A0F400911E0240
:100A100010911F0220912002309121020F5F1F4F81
:100A20002F4F3F4F00931E0210931F02209320026E
:100A3000309321028092220290922302A0922402FB
:100A4000B092250200911E0210911F0220912002F7
:100A50003091210280922A0290922B02A0922C02C5
:100A6000B0922D0200932E0210932F022093300299
:100A700030933102609326027093270280932802FC
:100A800090932902A8EEB3E0A30192010E943B2AB1
:100A90006C0D7D1D8E1D9F1D60931A0270931B02AD
:100AA00080931C0290931D0200911201109113017A
:100AB00020911401309115010F3F1F4F2F4F3F4FD1
:100AC000F1F0009112011091130120911401309165
:100AD00015010E3F1F4F2F4F3F4F89F0C09012015D
:100AE000D0901301E0901401F090150121E08C14D6
:100AF0009D04AE04BF0408F420E0209336027894ED
:100B00001F910F91FF90EF90DF90CF90BF90AF902B
:100B10009F908F907F906F905F904F9008954B01C2
:100B20005C0184189508A608B708A3019201261B4A
:100B3000370B480B590B6415750586059705D0F0E2
:100B400082169306A406B50640F420E030E0A90121
:100B500081149104A104B10491F4A8EEB3E00E94C1
:100B60003B2AA7019601261B370B480B590BCA01DC
:100B7000B901C5CF82169306A406B50670F7A8EE94
:100B8000B3E0A50194010E943B2A6C0D7D1D8E1DD2
:100B90009F1DB5CFFECECF93DF9300D000D0CDB751
:100BA000DEB71C821B821A821982109232021092C6
:100BB00033021092340210923502BE016F5F7F4FF4
:100BC000CE0103960E94B72269817A818B819C8134
:100BD0000E94AF1B009761F4BE016F5F7F4FCE0193
:100BE00003960E94C32269817A818B819C812CD5D6
:100BF0000F900F900F900F90DF91CF910895FF927B
:100C00000F931F93CF93DF93082F60E070E0CB0129
:100C10000E94F626FF24F3940E949A1AEC01892B75
:100C200089F010E0CE3F8FEFD80769F0002361F123
:100C300060E070E0CB010E94F62681E090E0892B15
:100C400059F322C011E023D5EC01892B21F0CE3FCE
:100C50008FEFD80759F711111EC011E0229609F441
:100C600010E00E944B1AEC01892B21F0CE3F8FEF50
:100C7000D807E1F6111111C011E0CE3F8FEFD80770
:100C800009F410E001110BC0CE01DF91CF911F914B
:100C90000F91FF90089511E0E4CF11E0F3CF60E0F1
:100CA00070E0CB010E94F6261F25812F90E0C7CF70
:100CB000CF93DF9380913602882321F060E070E0CB
:100CC000CB014CD635D6D0E0C0E0892B71F06AE07C
:100CD00070E080E090E00E94F62681E090DF28D668
:100CE0002196C03D27E0D20781F727D60E94031C3A
:100CF00010924E0210924D0210924702109248023A
:100D00001092490210924A02109243021092440239
:100D1000109245021092460210923F021092400239
:100D2000109241021092420210923B0210923C0239
:100D300010923D0210923E02109237021092380239
:100D40001092390210923A024EEF5FEF6FEF7FEF91
:100D50004093120150931301609314017093150195
:100D600010923602EAE2F2E028E0DF011D922A95B5
:100D7000E9F7109226021092270210922802109290
:100D80002902109222021092230210922402109241
:100D9000250210921E0210921F0210922002109241
:100DA000210210921A0210921B0210921C02109241
:100DB0001D02DF91CF91089510925A0210925B02AA
:100DC00010925C0210925D021092590280916202B0
:100DD00090916302909358028093570210925602AA
:100DE0001092550210925102109252021092530228
:100DF0001092540210925F0210925E0290E080E026
:100E00000895CF92DF92EF92FF920F931F93CF93AB
:100E10008C01892B09F055C0209162023091630248
:100E20008091570290915802409162025091630262
:100E300050935802409357022817390781F01092B7
:100E400056021092550210925102109252021092C4
:100E500053021092540210925F0210925E0280912F
:100E6000620290916302019761F580915E02909118
:100E70005F02892B21F480911601811112C08091AB
:100E80005E0290915F020197E1F48091510290918E
:100E90005202A0915302B09154020197A105B105ED
:100EA00081F4109251021092520210925302109249
:100EB00054021092160182E090E090935F028093BA
:100EC0005E028091620290916302019709F01CC159
:100ED00080917802909179028017910709F014C1EE
:100EE0008091740290917502A0917602B091770280
:100EF000009709F409C12091730221110DC040919E
:100F00007402509175026091760270917702452BC0
:100F1000462B472B09F4F8C020915E0230915F0206
:100F20002230310509F0F0C0209155022111ECC0AA
:100F3000FC01C080D180E280F38080915902882337
:100F400009F4D3C08091650290916602892B09F45F
:100F5000FDC0209165023091660281E022303105AA
:100F600009F080E02091650230916602C1E02130F5
:100F7000310549F02091650230916602C1E02230CE
:100F8000310509F0C0E0882309F456C020916F02B2
:100F9000309170024091710250917202C701B60106
:100FA0000E94202687FD14C020916F0230917002AC
:100FB000409171025091720260915A0270915B02ED
:100FC00080915C0290915D020E94EB2487FD22C01B
:100FD00020916F0230917002409171025091720223
:100FE000C701B6010E942026181634F520916F0221
:100FF00030917002409171025091720260915A02D8
:1010000070915B0280915C0290915D020E94EB24E2
:10101000811112C08091670290916802A0916902CB
:10102000B0916A02892B8A2B8B2B19F481E0809373
:10103000560281E080935502CC2309F456C02091DA
:101040006F02309170024091710250917202C7019B
:10105000B6010E94EB2487FF14C020916F023091EB
:101060007002409171025091720260915A02709127
:101070005B0280915C0290915D020E94202687FFB6
:1010800022C020916F023091700240917102509104
:101090007202C701B6010E94EB24811126C0209183
:1010A0006F02309170024091710250917202609112
:1010B0005A0270915B0280915C0290915D020E94E5
:1010C0002026181694F48091670290916802A091EE
:1010D0006902B0916A02892B8A2B8B2B19F481E06B
:1010E0008093560281E08093550281E090915502F1
:1010F000911180E080935902C0925A02D0925B0213
:10110000E0925C02F0925D02012B09F067C18091D0
:101110005E0290915F02892BD9F4109264021092C2
:10112000550280911601882379F082E090E0909337
:101130005F0280935E02109216012091620230914C
:10114000630281E0232BE9F080E01BC081E00ACF3D
:101150001092160180916402882349F01092560281
:1011600010925F0210925E0210926402EDCF8091A5
:10117000620290916302892BE1F0809155021092F6
:10118000550220915E0230915F022230310509F450
:101190005EC088F42115310509F448C021303105BD
:1011A00009F4F3C010925602109255021092640294
:1011B00038C081E0E6CF2330310509F4B1C02430D6
:1011C000310581F7409151025091520260915302D2
:1011D00070915402411551056105710561F041504E
:1011E0005109610971094093510250935202609371
:1011F00053027093540240915102509152026091F7
:10120000530270915402452B462B472BD9F4209161
:101210006002309161022130310509F046C0109220
:10122000560210925F0210925E020CC0809116016D
:10123000882341F082E090E090935F0280935E0209
:101240001092160110924F0280915602CEC0882350
:10125000C9F38091670290916802A0916902B091F0
:101260006A02181619061A061B060CF07DC080913A
:10127000620290916302019709F076C08091670243
:1012800090916802A0916902B0916A028093510224
:1012900090935202A0935302B093540283E090E0E3
:1012A00090935F0280935E02CDCF40916B0250918C
:1012B0006C0260916D0270916E02452B462B472B9C
:1012C000A9F01092560280916B0290916C02A0914D
:1012D0006D02B0916E028093510290935202A093DE
:1012E0005302B093540281E090E0DACF882399F062
:1012F0008091170190911801A0911901B0911A01E4
:101300008093510290935202A0935302B0935402DF
:1013100084E090E0C5CF1092560282E090E0C0CF0A
:101320008091510290915202A0915302B0915402C7
:101330000097A105B10559F00197A109B109809362
:10134000510290935202A0935302B09354028091A1
:10135000510290915202A0915302B0915402892BF4
:101360008A2B8B2B09F06ECF809117019091180179
:10137000A0911901B0911A01892B8A2B8B2B09F4AA
:101380004ECF81E080935602B3CF409151025091ED
:10139000520260915302709154024115510561054A
:1013A000710561F041505109610971094093510281
:1013B0005093520260935302709354024091510231
:1013C000509152026091530270915402452B462B6A
:1013D000472B09F037CF8111C7CF9FCF80914F02A4
:1013E000882309F431CF80915002CF911F910F9142
:1013F000FF90EF90DF90CF90089510925A021092D4
:101400005B0210925C0210925D02109259021092DF
:101410005F0210925E0210925802109257021092D0
:101420007902109278021092560210925502109290
:1014300051021092520210925302109254021092D2
:10144000500210924F021092740210927502109284
:101450007602109277021092730210926F0210922D
:101460007002109271021092720288EE93E0A0E076
:10147000B0E08093170190931801A0931901B093E5
:101480001A0110926B0210926C0210926D0210926F
:101490006E02109267021092680210926902109216
:1014A0006A02109266021092650281E08093160132
:1014B0001092640210926302109262021092610212
:1014C0001092600290E080E0089580916202909115
:1014D0006302892B19F580911601882351F08091C0
:1014E0006402811106C081E08093500280934F0214
:1014F0000895209164023091160181E090E0332339
:1015000011F090E080E030E082239323892B21F0DA
:101510001092500281E0EACF10924F02089582E0CB
:1015200090E0FA01918380838FEF9FEF0895CF932E
:10153000DF93EA01009711F00E94201D19821882A2
:1015400090E080E0DF91CF910895DB01009719F4DE
:101550008FEF8C9308952EEF2C930F968F3091057B
:1015600008F033C0FC01E954F54F0C94262AE30A35
:10157000E10ADF0ADD0ADB0AD70AD90AD50AD30A4B
:10158000D10ACE0ACA0AC60ACC0AE50A80E3119635
:101590008C93089589E2FBCF82E2F9CF11961C92D9
:1015A000089583E2F4CF81E2F2CF81E1F0CF87E2C8
:1015B000EECF8AE2ECCF80E1EACF84E2E8CF88E2A6
:1015C000E6CF86E2E4CF81E3E2CF80E2E0CF809114
:1015D00086029091870208959093870280938602F5
:1015E000089580918502089590918502892B8093BA
:1015F00085020895982F9095809185028923809384
:1016000085020895809184020895809182029091CC
:10161000830208956115710559F0FB0130E020E067
:1016200070E060E02417350719F06115710511F0BD
:10163000CB010895A081B181A817B90709F4BF01B2
:101640002F5F3F4F3696EECF8091880281111CC0EC
:1016500062D268D290937B0280937A020E94251511
:101660000E94371590937F0280937E020E94B519E5
:101670000E94BC1990937D0280937C0281E080934C
:10168000880290E080E0089584EF9FEF08958F92A4
:101690009F92AF92BF92CF92DF92EF92FF920F9301
:1016A0001F93CF93DF93CDB7DEB72A970FB6F89489
:1016B000DEBF0FBECDBF1A86198618861F821E8216
:1016C0001D821C821B821A8219828091880207EF78
:1016D0001FEF882309F49CC08E010D5F1F4F9E01F0
:1016E0002B5F3F4FAE01495F5F4FBE01675F7F4F8A
:1016F00090E080E00E94351B8C01009721F0059658
:10170000029708F0DBC029853A852115310509F4D7
:1017100002C1ED80FE804B815C81B701640F751FB3
:101720008F8198858617970708F4F5C0E20EF31E9F
:10173000D7019C91903C09F07FC04230510508F4DC
:101740007BC011968C914091860250918702452B67
:1017500009F49CC0913F08F071C02CE1290F2D3095
:1017600008F48BC02DE2290F203108F489C0903C89
:1017700021F48150823008F483C088E3890F8B30D4
:1017800008F481C095EAC92E9AE0D92EEFE8FAE074
:101790006D817E81AE014F5F5F4F89859A85099586
:1017A0005C01C114D104A1F189809A808114910453
:1017B00079F18B819C818815990508F487C010E028
:1017C00000E04B815C8170E060E0C7010E944E2A1E
:1017D00001151105E9F449815A8169857A858D8160
:1017E0009E81680F791FC501F6010995E980FA808D
:1017F0000D811E812F81388549855A856FEF7FEFD6
:1018000081E090E00E94D11A8C01892B09F056C02A
:10181000C8012A960FB6F894DEBF0FBECDBFDF9188
:10182000CF911F910F91FF90EF90DF90CF90BF90DD
:10183000AF909F908F90089580E085CF30E020E0BA
:10184000220F331FF901E658FD4F0190F081E02D82
:10185000309709F497CF892F90E00995009709F404
:1018600091CFDC011296ED91FC9113971496CD90D7
:10187000DC90309709F08CCF1FC021E030E0E0CF42
:1018800022E030E0DDCF23E030E0DACFD12CC12CF4
:10189000E7E9FAE09F3F09F07BCFE0917A02F0910F
:1018A0007B02309721F4C90104EF1FEF0CC08FEFCA
:1018B00090E009950097A9F604EF1FEF89859A85B6
:1018C000009709F4A5CF0E94201DA2CF0E94FE1B05
:1018D0008C0189859A850E94201D70E060E0C4011A
:1018E0000E94971B98878F830E94CE1A9E838D83B8
:1018F0006F8178856115710559F0C8010E94AC1E91
:101900009A87898706EF1FEF892B09F058CF59CFA7
:1019100008EF1FEF56CF08EF1FEFD0CF20918802BE
:10192000222319F020E00C943C1587EF9FEF0895D7
:10193000809186029091870208950E94C1190E94A9
:101940001B19F5D0EAE7F2E088E0DF011D928A95E5
:10195000E9F71092880290E080E008950C947817DF
:1019600021E040E050E0BA010C943C1586E090E0A4
:10197000FA019183808390E080E0089547E050E091
:101980006FE371E047CEDF92EF92FF920F931F93C8
:10199000CF93DF938A01EC01C60FD71FE0908C0232
:1019A000F0908D02D9800E94E61BD816190678F0B7
:1019B00082E090E0F801918380838EEF9FEFDF91CA
:1019C000CF911F910F91FF90EF90DF900895EF2836
:1019D00041F482E090E0F8019183808384EF9FEFEF
:1019E000EECF898180938B0290E00196F80191837C
:1019F000808390E080E0E3CFCF93DF93EA010E9401
:101A00002918882321F00E94F31B0E942A1882E0E3
:101A100090E0998388838BEF9FEFDF91CF910895BA
:101A2000CF93DF93EB0186E0FB0111928A95E9F7F2
:101A30008FEF8883D6DD8983E5DD8A83E6DD9D83AC
:101A40008C83DF91CF910895CF93DF93EA010E94B9
:101A50002C18811109C082E090E09983888385EF7A
:101A60009FEFDF91CF91089590E080E0B5DD81E0B8
:101A700090E09983888390E080E0F3CF0F931F93E9
:101A8000CF93DF93EA018C01060F171F0E942C18D9
:101A900081110BC082E090E09983888385EF9FEFEE
:101AA000DF91CF911F910F910895F80181818230CC
:101AB00038F082E090E0998388838EEF9FEFF0CF3B
:101AC00081E090E089DD88E090E09983888390E070
:101AD00080E0E6CFCF93DF930097D1F4EB01FB01D9
:101AE000329686E0DF011D928A95E9F78FEF8883B1
:101AF00085E089831A820E94E61B8B830E94E51B86
:101B00009D838C8381E08E838F83DF91CF910895B5
:101B1000DF91CF911ACD8EEB9CE090938A02809357
:101B2000890208958091890290918A020895109205
:101B30008A0210928902089580918C0290918D0200
:101B40000895411105C0611571058105910561F088
:101B500060938C0270938D0280938E0290938F021B
:101B60004093900281E0089580E00895FF920F93E2
:101B70001F93CF93DF938A01EC01C60FD71FF98023
:101B80000E94E61BF816190668F082E090E0F80162
:101B9000918380838EEF9FEFDF91CF911F910F9103
:101BA000FF9008956C817D818E819F814B81C9DF7B
:101BB000811108C082E090E0F8019183808384EF76
:101BC0009FEFEACF898180938B0290E00196F80124
:101BD0009183808390E080E0DFCFCF93DF93EA01B1
:101BE000FC01E60FF71F648175818681978143812F
:101BF000A8DF811109C082E090E09983888384EF97
:101C00009FEFDF91CF91089581E090E099838883E1
:101C100090E080E0F6CFECE8F2E040815181628113
:101C20007381480F511D611D711D40835183628373
:101C300073830895CF93C0918B024C2F50E0609135
:101C40008C0270918D0201960E94452A8C2FE3DF51
:101C500010928B02CF910895009799F480918C0295
:101C600090918D022FEFFB012083892B59F0209159
:101C70008B0230E02F5F3F4F2417350719F4CB015B
:101C8000D9CF63CC0895009799F480918C029091FC
:101C90008D022FEFFB012083892B59F020918B02BD
:101CA00030E02F5F3F4F2417350719F4CB01C2CF27
:101CB0004CCC089523E1AC01249FC001259F900DD9
:101CC0001124E0919502F0919602E80FF91F23810B
:101CD00034812250310981E02230310508F080E062
:101CE00008950F931F93CF93DF9300919702109164
:101CF0009802D0E0C0E080E00C171D0749F491E0A5
:101D0000811190E0892FDF91CF911F910F9108955C
:101D10008111F5CFCE01CEDF2196EECFA0919502B5
:101D2000B0919602109729F1209197023091980274
:101D300082179307F0F453E1589F9001599F300D9B
:101D40001124A20FB31FED91FC911197309789F0E8
:101D500012968C91681768F48DE0689FE00DF11D74
:101D6000112480819181892B21F081E09281491792
:101D700008F080E008959C0143E1429FC001439F29
:101D8000900D1124E0919502F0919602E80FF91F51
:101D90008385823091F481E090E065817681409185
:101DA0001B0150911C016417750711F490E080E04D
:101DB000892B19F081E0232B09F080E00895FC01C4
:101DC000A081B1818DE0689FA00DB11D11241396F3
:101DD0004D915C9185859685489F9001499F300D76
:101DE000589F300D1124C9010196611103C047812C
:101DF00044FD04960895EF92FF920F931F93CF93A3
:101E0000DF93EA01FC01E60FF71F02811381E480F2
:101E1000F5804F2D6E2DC80181DF81110DC082E04C
:101E200090E0998388838EEF9FEFDF91CF911F9190
:101E30000F91FF90EF900895C8013CDF882339F09F
:101E400082E090E09983888388EF9FEFEECF109334
:101E5000220100932101E0922301F092240181E00C
:101E600090E09983888390E080E0DFCFCF92DF928B
:101E7000EF92FF920F931F93CF93DF937A01EC01C0
:101E8000C60FD71FC0902101D090220100912301DD
:101E900010912401412F602FC60140DF811110C035
:101EA00082E090E0F701918380838AEF9FEFDF91DA
:101EB000CF911F910F91FF90EF90DF90CF900895F9
:101EC000C601F8DE882341F082E090E0F7019183BB
:101ED000808388EF9FEFEBCF4C815D816E817F81A6
:101EE0009A8189818F3F41F082E090E0F7019183F0
:101EF00080838EEF9FEFDBCFE3E1EC9D9001ED9DC2
:101F0000300D1124E0919502F0919602E20FF31F3B
:101F10000190F081E02D2DE0029FE00DF11D1124D4
:101F20000190F081E02D27E0129FE00DF11D1124BA
:101F3000808391838B8182834383548365837683FB
:101F40001F5F1093240181E090E0F701918380836B
:101F500090E080E0ACCFEF92FF920F931F93CF936E
:101F6000DF937A018C01060F171FC0919502D09163
:101F70009602209781F021E030E0F8018281938180
:101F800040919702509198028417950710F030E025
:101F900020E0232B71F482E090E0F70191838083AD
:101FA0008EEF9FEFDF91CF911F910F91FF90EF90F8
:101FB000089543E1489F9001499F300D1124C20FBD
:101FC000D31F78DE882341F082E090E0F70191830F
:101FD000808388EF9FEFE6CFF80124813581203898
:101FE0003105C8F687818111D6CF4181842F90E0D9
:101FF0008F7E009741F082E090E0F701918380832B
:1020000086EF9FEFCFCF4F833E832D832681288796
:102010001986223010F421E0288721E030E0F70112
:1020200031832083BFCF88E090E0FA0191838083E1
:1020300090E080E00895FB018FEF808381E1818350
:102040008FEF9FEF9383828380E890E09583848372
:10205000168217820895FB018FEF808391E09183B0
:1020600082839383848384E3858381E090E09783F4
:1020700086830895DF92EF92FF920F931F93CF9381
:10208000DF93EA01FC01E60FF71F8181813071F0D7
:1020900082E090E0998388838FEF9FEFDF91CF916B
:1020A0001F910F91FF90EF90DF90089582819381AF
:1020B000D4802581E680F7800091950210919602E8
:1020C0000115110539F482E090E0998388838CEF43
:1020D0009FEFE4CF409197025091980284179507A3
:1020E00038F082E090E0998388838EEF9FEFD6CF1F
:1020F000892B39F082E090E09983888386EF9FEF07
:10210000CDCF8D2D8D7FB1F72130A1F781E0D1109A
:1021100006C091E0E916F10431F080E004C0E2E08D
:10212000EE16F104D0F3882329F390E080E0C2DDBD
:10213000882339F082E090E09983888388EF9FEFCD
:10214000ADCFF801D38681E08487F686E586108AD4
:10215000178681E090E09983888390E080E09ECFAD
:102160004CE050E069E671E055CA8F929F92BF92B1
:10217000CF92DF92EF92FF920F931F93CF93DF9353
:10218000EA01FC01E60FF71F828193810481B5808B
:10219000E0919502F0919602309791F482E090E000
:1021A000998388838CEF9FEFDF91CF911F910F91DF
:1021B000FF90EF90DF90CF90BF909F908F90089509
:1021C00020919702309198028217930738F082E0AD
:1021D00090E0998388838EEF9FEFE6CF23E1289FDD
:1021E0006001299FD00C1124EC0DFD1DE080F180D1
:1021F000E114F10499F28281081748F78DE0089FF5
:1022000080011124E00EF11EF70180819181892B5C
:1022100029F6BB20E1F2F7E0BF9E40011124C40182
:102220000E94E71CF70191838083E0919502F09171
:102230009602EC0DFD1D0190F081E02DE00FF11FE5
:1022400080819181009739F482E090E099838883BE
:102250008DEF9FEFA9CFA40170E060E00E944E2AAD
:102260008091950290919602C80ED91EF601808148
:102270009181080F191FF801B28281E090E09983E3
:10228000888390E080E090CFAF92BF92CF92DF92B0
:10229000FF920F931F93CF93DF93EA01FC01E60FA8
:1022A000F71F82819381F48000919502109196022C
:1022B0000115110581F482E090E0998388838CEF09
:1022C0009FEFDF91CF911F910F91FF90DF90CF9003
:1022D000BF90AF9008952091970230919802821795
:1022E000930738F082E090E0998388838EEF9FEF28
:1022F000E8CF2FEF2F0D2C3FA8F723E1289F600197
:10230000299FD00C11240C0D1D1DF8018081918195
:10231000892B89F6FDE0FF9E50011124C5010E9422
:10232000E71CF80191838083E0919502F091960279
:10233000EC0DFD1D80819181009739F482E090E0E1
:10234000998388838DEF9FEFBCCFA50170E060E09B
:102350000E944E2AE0919502F0919602EC0DFD1D2F
:10236000F28281E090E09983888390E080E0A9CFB9
:10237000CF92DF92EF92FF920F931F93CF93DF9351
:10238000860F971FFC010281138180919502909125
:102390009602892B81F082E090E0FA01918380839C
:1023A0008CEF9FEFDF91CF911F910F91FF90EF90F6
:1023B000DF90CF900895C801B0E0A0E00197A10997
:1023C000B1098F3F9F4FA105B10540F082E090E039
:1023D000FA01918380838EEF9FEFE4CF7A0183E14E
:1023E000809F6001819FD00C1124C6010E94E71CD0
:1023F000EC01009741F482E090E0F7019183808343
:102400008DEF9FEFCFCFA60170E060E00E944E2AD3
:10241000D0939602C093950210939802009397026E
:1024200090E080E02FEF3FEF41E061E070E0801747
:10243000910741F481E090E0F7019183808390E07F
:1024400080E0B0CF3A8B298B1B864C877E876D87C7
:10245000188A1F8601966396EACFEF92FF921F9328
:10246000CF93DF93EC0110E0F12CE12C6A81161779
:10247000A8F070E0660F771FAE014F5E5F4FC70197
:102480000E944C1D009721F02FEF3FEF3A8B298BD4
:10249000DF91CF911F91FF90EF900895612FCE01B2
:1024A0008EDC61E070E00E94971BE816F90608F4E4
:1024B0007C011F5FDBCFF89420919302309194024E
:1024C00081E02115310509F080E0232B09F0789493
:1024D00008952F923F924F925F926F927F928F92C8
:1024E0009F92AF92BF92CF92DF92EF92FF920F93A3
:1024F0001F93CF93DF933C01660E771EF301828119
:1025000093814C01B12CA12CC0919502D0919602DF
:10251000209769F021E030E0609197027091980275
:102520008617970710F030E020E0232BD1F482E0EB
:1025300090E0FA01918380838EEF9FEFDF91CF913E
:102540001F910F91FF90EF90DF90CF90BF90AF90D1
:102550009F908F907F906F905F904F903F902F90C3
:1025600008958092250190922601A0922701B092B1
:10257000280163E1689F9001699F300D1124C20F0B
:10258000D31FF3018181833040F082E090E0FA01B3
:102590009183808386EF9FEFD1CF2A012B813C81ED
:1025A000232BF1F4288139819F8191FF2EC0232BA9
:1025B00009F46FC020919A029A81422F490F552742
:1025C000551FBA0141E050E06138710514F050E048
:1025D00040E0452B09F45DC02A87920F90939A0240
:1025E0008150823008F481C066DF882309F4D8C0A6
:1025F000F3018181813009F48DC008F47BC0823001
:1026000009F4C6C090E080E0ADC0232B09F441C0BE
:10261000209199029A81E22FE90FFF27FF1F41E0E5
:1026200050E0ED3FF10514F050E040E0452B89F11A
:102630002A87920F90939902D3CFA081B181A20FE4
:10264000B31F11966C91060F111D0196295F3F4F24
:102650008417950794F38D859E85089F1001099F27
:10266000300C189F300C1124C114D104D1F48F8187
:1026700084FF17C00E94E51BF5E02F0E311C21E0FE
:102680008215930508F420E0A701435F5F4F2111F5
:102690000EC082E090E0F2019183808387EF9FEF8C
:1026A0004DCF0E94E51B2FEF221A320AE8CF888116
:1026B0009981E80EF91EF70114830383FFEFCF1A07
:1026C000DF0A7A018A818C151D0409F00CF48CCF85
:1026D000E881F981EE0DFF1D428150E030E020E0FD
:1026E00010E000E090E080E0B3CFF12CE12CD12CA1
:1026F000C12CE8CF81E090E09C838B83F2DA8823C1
:1027000009F480CF81E090E00E94EC0A80E40E940E
:10271000FA0A78CF89899A89019661F083E090E07E
:102720009C838B8382E090E00E94EC0A80E40E940C
:10273000F40A68CF8D819E8120911B0130911C018C
:1027400082179307D1F460911F0170912001AE01AF
:102750004F5E5F4F80911D0190911E010E946B1E84
:102760000097E1F2789422E030E0F2013183208397
:10277000892B99F08DEF9FEFE1CE89288A288B284D
:1027800069F6892B59F6CE0168DE188A1F86E8CFD4
:1027900082E090E09C838B8335CF90E080E0CECECA
:1027A00082E090E0F2019183808385EF9FEFC6CEB7
:1027B0008F929F92AF92BF92CF92DF92EF92FF9251
:1027C0000F931F93CF93DF93EA018C01060F171F1E
:1027D000F8018181833098F082E090E099838883CA
:1027E00086EF9FEFDF91CF911F910F91FF90EF90B8
:1027F000DF90CF90BF90AF909F908F900895809181
:10280000950290919602892B61F081E090E02091F1
:10281000970230919802232B11F490E080E0892BED
:1028200039F482E090E0998388838EEF9FEFDACFCE
:1028300042DE882309F4DFC0F8018181813009F488
:1028400095C0E8F0823099F4209197023091980277
:10285000E0919502F091960290E080E041E050E036
:102860002817390709F0BDC03CDA811117C07894E8
:1028700081E090E09983888390E080E0B3CF20915D
:10288000970230919802E0919502F091960290E0C3
:1028900080E041E050E02817390741F481E090E002
:1028A0000E94EC0A80E40E94FA0AE1CF63817481FD
:1028B000672B11F05483438301967396ECCFE0911C
:1028C0009502F0919602E00FF11F238134812230AE
:1028D0003105D9F4218932892F3F3F4FB1F4258149
:1028E000368140911B0150911C012417350761F579
:1028F000AF014F5E5F4F60911F0170912001809189
:102900001D0190911E010E946B1EEFEFCE1ADE0A90
:10291000EE0AFE0A0D5E1F4F4091970250919802F9
:1029200070E060E0C416D506E606F7063CF50097B1
:1029300031F27894892B09F49BCF82E090E099835F
:1029400088838DEF9FEF4ECFC114D104E104F104D1
:10295000E1F6232BD1F6CF0180DDE0919502F091D5
:102960009602E00FF11F108A1786CFCF10E000E02B
:1029700090E080E0C12CD12C7601CECF0097C9F633
:1029800010E000E0812C912C540183E0E82EF12C22
:102990001AC0E0919502F0919602E00FF11F838139
:1029A0009481029749F4F482E38282E090E00E94ED
:1029B000EC0A80E40E94F40AFFEF8F1A9F0AAF0A24
:1029C000BF0A0D5E1F4F8091970290919802B0E070
:1029D000A0E088169906AA06BB06DCF290E080E02B
:1029E000A8CF638174816230710511F454834383ED
:1029F0000196739635CF82E090E09983888385EFC6
:102A00009FEFF0CE0097B9F48FEFFB018083209108
:102A100025013091260143E1429FC001439F900D63
:102A20001124E0919502F0919602E80FF91F82853A
:102A3000FB01818308950C94A50A88E090E0FA01D7
:102A40009183808390E080E0089510929402109228
:102A50009302E5E9F2E086E0DF011D928A95E9F74D
:102A600080EB90E19093920280939102089580917F
:102A700091029091920208952F923F924F925F920D
:102A80006F927F928F929F92AF92BF92CF92DF927E
:102A9000EF92FF920F931F93CF93DF93CDB7DEB7E3
:102AA0002F970FB6F894DEBF0FBECDBFF894E0911C
:102AB0009302F09194023196F0939402E093930282
:102AC000789440909502509096024114510409F474
:102AD0000CC2E0919702F0919802EF2B09F405C225
:102AE0002D8749875A876B877C8798878F83120148
:102AF000B12CA12C10E000E08091970290919802F7
:102B0000A816B90618F40115110529F1F894809159
:102B10009302909194020197909394028093930270
:102B20007894C8012F960FB6F894DEBF0FBECDBFC4
:102B3000DF91CF911F910F91FF90EF90DF90CF9099
:102B4000BF90AF909F908F907F906F905F904F90CD
:102B50003F902F9008957101E418F508D101179660
:102B60008C91179781FD54C013968D919C91149769
:102B7000039709F04DC015968D919C91EF81F885D2
:102B80008E179F0709F044C0B50190E080E07ED425
:102B90008A8320919502309196023D832C833D8556
:102BA000332309F44CC04C815D81452B09F49AC153
:102BB0008091970290919802A816B90608F092C1E8
:102BC000C501D9D88823E9F06C817D816E0D7F1D08
:102BD0007D836C83DB011F968D919C91892B89F0FD
:102BE000D12CC12CF12CE12CAC81BD8112968C91A1
:102BF00012978E151F0409F094F450961C921E92A1
:102C00001F972A81222321F0B50190E080E040D473
:102C10003FEFA31AB30A43E1240E311C6DCFAC8100
:102C2000BD81ED91FC91EC0DFD1D8581968108D74C
:102C3000BFEFEB1AFB0AEDE0CE0ED11CD5CFEC8135
:102C4000FD81309709F44EC18091970290919802CE
:102C5000A816B90608F046C1EE0DFF1DFF87EE87E6
:102C6000C50189D88B83882339F1AE85BF851F962E
:102C70008D919C915097019621E01D964D915C910C
:102C80008417950709F020E02E831982712C10E03B
:102C900000E0AE85BF8512968C91781608F45DC071
:102CA000EE85FF85878590890196658576850E94EA
:102CB000F029908B8787A5CFB1E0BE83E6CF99241A
:102CC00093946BC084D6F6019683858382C0D60127
:102CD000ED90FC90B7E06B9EE00CF11C1124F70125
:102CE0006381748180818F3F61F121E030E002C017
:102CF000220F331F8A95E2F7C901092E000CAA0B97
:102D0000BB0BFB0140815181628173818423952338
:102D1000A623B72321E0892B8A2B8B2B09F420E0F3
:102D2000D4012C93D70111968C91F601238534851B
:102D3000820F932F911D880E991E1486138663941B
:102D40009BC0418150E0C4010E94452AEBCF99828B
:102D500006EF1FEFC5C01982C3C0F981F111A0CFE2
:102D6000EDE07E9E70011124AE85BF85CD90DC9094
:102D7000CE0CDF1C13D49D838C83BB81BB2309F451
:102D80009ECF81E0EE85FF8527853089232B09F0D2
:102D900080E0982E882309F458C0672D8E859F8582
:102DA0000ED8D60118969C938E93179761E070E029
:102DB000BED4EE85FF85218932892F3F320709F481
:102DC00081CFBC01C901C8D7D60116969C938E93BA
:102DD0001597D60115968D919C911697009709F439
:102DE000B6CFEC81FD818E0F9F1F1A969C938E9318
:102DF0001997AE85BF85ED91FC911197EE0EFF1EE0
:102E0000F70121853285148613861A968C91870DD9
:102E1000D9018D93711016C0EE85FF85878184FFDF
:102E200011C049855A856B857C85F90141835283A0
:102E300063837483F701838594850496A80FB91F73
:102E400014861386F701B287A187D60115968D9156
:102E50009C911697892B09F443C0EE85FF85258147
:102E6000368180911B0190911C012817390779F058
:102E700019968D909C90612CD60112968C91129788
:102E8000681608F424CF1A969C928E921997BE81E8
:102E9000BB2309F460CF61E070E0F6018781908583
:102EA00046D4D6011796ED90FC90189715964D9143
:102EB0005C91E1E0F0E0BA81BB2311F0F0E0E0E0EA
:102EC0000C811D819C01B501882799278E1B9F0BC2
:102ED00068D38C01892B21F0F60185819681B0D5CC
:102EE0007394D7CE0FEF1FEF8CCE10E000E00ECE24
:102EF0002F923F924F925F926F927F928F929F920A
:102F0000AF92BF92CF92DF92EF92FF920F931F93F7
:102F1000CF93DF93809195029091960210E000E0AC
:102F2000892BA9F0C8DA0AEF1FEF882381F02090DF
:102F3000970230909802C0919502D0919602D12CC0
:102F4000C12C10E000E02C143D04A9F47894C801D1
:102F5000DF91CF911F910F91FF90EF90DF90CF9075
:102F6000BF90AF909F908F907F906F905F904F90A9
:102F70003F902F900895C6010E94BB0E882309F14F
:102F80008B819C810397E9F48F859889892BC9F0FF
:102F9000B60190E080E07AD221E030E0882311F0A1
:102FA00030E020E044245524421A530AB12CA12CCD
:102FB000912C812C8A818815190409F038F4188A1B
:102FC0001F864FEFC41AD40A6396BDCFE881F981FA
:102FD000EA0DFB1D85819681892BA1F161E070E0EE
:102FE00087819085A4D33C01D9D28C01E881F981F5
:102FF000EA0DFB1D8185928525813681200F311FC9
:10300000AC01421B530B9A0147815085421B530B65
:1030100070E060E00E944E2AE881F981EA0DFB1D14
:10302000E780F084458156819301B601C201B9D28F
:103030008C01892B39F0E881F981EA0DFB1D85812E
:103040009681FED45FEF851A950A8DE0A80EB11C1B
:10305000B1CF31CA789408952F923F924F925F92E8
:103060006F927F929F92AF92BF92CF92DF92EF9238
:10307000FF920F931F93CF93DF9300D000D000D027
:10308000CDB7DEB7009195021091960299249394E2
:103090000115110509F43EC0A0909702B090980266
:1030A0000ADA982E8823B1F11092960210929502B6
:1030B00010929802109297021092990210929A021E
:1030C0008FEF9FEFDC018093250190932601A09361
:1030D0002701B093280178947AD31E830D83C12CE5
:1030E000D12C7601C501B0E0A0E089839A83AB833F
:1030F000BC8322242A94322C89819A81AB81BC81A1
:10310000C816D906EA06FB06F4F0C80199D480E493
:103110000E94FA0A892D26960FB6F894DEBF0FBEDC
:10312000CDBFDF91CF911F910F91FF90EF90DF9076
:10313000CF90BF90AF909F907F906F905F904F9097
:103140003F902F900895AD81BE8115968D919C91F1
:10315000169720911B0130911C0182179307D1F41F
:1031600051968D919C91E6D5ED81FE818081918172
:10317000B12CA12C412C512C3201892B89F5BFEFA8
:10318000CB1ADB0AEB0AFB0AED81FE817396FE8304
:10319000ED83B2CFC114D104E104F10429F7892BE6
:1031A00019F7ED81FE81818992898F3F980709F097
:1031B00021D5AD81BE8152963C922E925197D4CFAB
:1031C0008A0D9B1DDC018D919C91009709F038D4EC
:1031D000BFEF4B1A5B0A6B0A7B0AEDE0AE0EB11C27
:1031E000AD81BE818D919C91119712964C9150E0CA
:1031F00070E060E044165506660677060CF320D4AE
:10320000BECFCF93DF93EA0127DF811109C082E0AF
:1032100090E09983888385EF9FEFDF91CF910895A8
:1032200081E090E00E94EC0A81E090E0998388833D
:1032300090E080E0F2CF10DF1092920210929102A3
:10324000089542E050E061EB71E00C940A0BFF92AC
:103250000F931F93CF93DF938A01EC01C60FD71F03
:10326000F980B4D20897F816190671F068F082E078
:1032700090E0F801918380838EEF9FEFDF91CF91F3
:103280001F910F91FF9008956C817D818E819F81A8
:103290004B810E94A10D811108C082E090E0F801ED
:1032A0009183808384EF9FEFE9CFF9800E949C0D8A
:1032B0004F2D50E0BE01685F7F4F0E94452A8981F3
:1032C0000E940B0E81E090E0F8019183808390E0F2
:1032D00080E0D4CFDF92EF92FF920F931F93CF93B2
:1032E000DF938A01EC01C60FD71F0E949C0D7C0161
:1032F000D9806CD2DD2059F0029721E030E0D81659
:10330000190619F010F030E020E0232B79F482E068
:1033100090E0F801918380838EEF9FEFDF91CF9152
:103320001F910F91FF90EF90DF900895EF2841F4E7
:1033300082E090E0F8019183808384EF9FEFEECFED
:10334000F9800E949C0D4F2D50E0BE016E5F7F4FB3
:103350000E94452A89810E940B0E81E090E0F801CD
:103360009183808390E080E0D9CF81E299E19093CE
:103370009C0280939B02089580919B0290919C02F5
:1033800008950895FC011182108293838283089529
:10339000DB011D921C92DC011296ED91FC911397BA
:1033A0007183608313967C936E9312970895FC014A
:1033B00080819181DB018D939C93A081B1811097D5
:1033C00041F08D919C9191838083892B11F4F3833B
:1033D000E2830895FC0180819181DB018D939C93B0
:1033E000892B11F473836283718360830895FC01D8
:1033F00011821082938382830895CF93DF9300D04C
:10340000CDB7DEB71A821982F894BE016F5F7F4F85
:1034100082EA92E0CCDF89819A81009709F010D38B
:1034200089819A81892B89F7BE016F5F7F4F86EA78
:1034300092E0BDDF89819A81009709F001D38981EB
:103440009A81892B89F778940F900F90DF91CF9113
:103450000895CF93DF9300D0CDB7DEB71A821982DB
:10346000F894BE016F5F7F4F8EE992E0A0DF898103
:103470009A81009709F0E4D289819A81892B89F792
:1034800078940F900F90DF91CF91089581E0089587
:1034900090E080E00895EF92FF920F931F93CF93F7
:1034A000DF9300D0CDB7DEB71A82198280919D02DA
:1034B00007EF1FEF8823A1F1F894BE016F5F7F4FE4
:1034C00086EA92E074DF789489819A81EE24E3940D
:1034D000F12C892B51F4F894BE016F5F7F4F82EA83
:1034E00092E065DF7894F12CE12C89819A810EEFCE
:1034F0001FEF0097A9F0FC014281538164E070E066
:103500006AD68C01892B61F0F89469817A81C701B0
:10351000880F991F880F991F8E559D4F5BDF7894F8
:10352000C8010F900F90DF91CF911F910F91FF90E5
:10353000EF9008950F931F93CF93DF9300D000D0A7
:10354000CDB7DEB71C821B821A82198280919D0240
:1035500007EF1FEF8823C1F0AE014D5F5F4F64E0BE
:1035600070E0CE010196AAD68C01892B69F4E9811D
:10357000FA818B819C8193838283F89469817A811B
:103580008EE992E005DF7894C8010F900F900F90BC
:103590000F90DF91CF911F910F910895AFD70496AF
:1035A00008958F929F92AF92BF92CF92DF92EF9247
:1035B000FF920F931F93CF93DF9300D0CDB7DEB769
:1035C0001A821982BC016F5F7F4F6330710598F0DA
:1035D000AA24AA94BA2CC5010F900F90DF91CF9125
:1035E0001F910F91FF90EF90DF90CF90BF90AF9021
:1035F0009F908F9008954115510551F3480159014D
:103600008A016C01CBDF8815990511F7E114F104EB
:10361000F9F28E0D9F1DA816B906D0F280919D0279
:103620008823F1F0F894B501645071099701AE0157
:103630004F5F5F4FC8010496D6D65C01892B71F4A9
:1036400089819A81F80193838283C601880F991F2B
:10365000880F991FB8018E559D4F9ADE7894BBCF85
:1036600087EFA82EBB24BA94B6CFAF92BF92CF9269
:10367000DF92EF92FF920F931F93CF93DF9300D0CF
:10368000CDB7DEB71A821982892B09F047C06115C0
:10369000710509F443C04115510509F43FC02115D6
:1036A000310509F43BC001151105C1F180919D025E
:1036B0008823B9F179016A015B01F894BE016F5F5B
:1036C0007F4F8EE992E073DE789489819A8100972A
:1036D00059F1DC0112966D917C91A80104969CD65B
:1036E0008C01E981FA81D501ED93FC93828193816C
:1036F0000496F6019183808351DFD7018D939C93CB
:10370000C8010F900F90DF91CF911F910F91FF9003
:10371000EF90DF90CF90BF90AF9008950FEF1FEF25
:10372000EFCF07EF1FEFECCF0EEF1FEFE9CFCF93F7
:10373000DF93EC01672B71F4EAD68C179D0760F0DC
:10374000DDD62496C80FD91FDCD68C0F9D1FDF91C4
:10375000CF910895D9D6F1CF90E080E0F8CF0F93C4
:103760001F93CF93DF9320919D0221112BC08B01DA
:10377000EC0182EA92E006DE86EA92E003DE8EE960
:1037800092E000DE97D00097C1F4C1D670E060E00F
:10379000CEDF49E251E062E070E07ED1009769F44B
:1037A0008091290190912A01C4D6B801CE01F9D4A3
:1037B000009719F421E020939D02DF91CF911F9192
:1037C0000F91089584EF9FEFF8CF9EC6A0C6CF93C8
:1037D000DF93A0D6EC01892B11F40FDE3ADECE0187
:1037E000DF91CF910895CF93DF9394D6EC01892B8D
:1037F00009F403DECE01DF91CF9108958091290174
:1038000090912A010895CF93DF9380919D02D0E09B
:10381000C0E08823D1F092D6EC01892BB1F4EDDD24
:1038200018DE8091290190912A01E4D1E5D2EC01C2
:10383000892B59F482EA92E0DADD86EA92E0D7DD5C
:103840008EE992E0D4DD10929D02CE01DF91CF91FE
:103850000895EF92FF920F931F93CF93DF93EC01A4
:103860007A018B010F5F1F4F0E9DA0010F9D500D20
:103870001E9D500D112470E060E00E944E2A90E0E1
:1038800080E0F0E0E0E02FEFE816F90639F4DF9190
:10389000CF911F910F91FF90EF9008951A82198296
:1038A0002883309711F0D283C1830196FE01C00FA7
:1038B000D11FEACFCF92DF92EF92FF920F931F9327
:1038C000CF93DF9306E913E00C7F43E050E06BE217
:1038D00071E081E391E012D48BE2E82E81E0F82ED2
:1038E00091E3C92E91E0D92EC5E0D4E0D7014D91E6
:1038F0005D917D01F601619171916F0119830883DA
:103900005D834C835B834A837F836E839B012F5F40
:103910003F4F249FC001259F900D349F900D11248F
:10392000998788870115110511F0C80192DF8885F4
:103930009985080F191F2A96F1E3EF16F1E0FF06AB
:10394000A9F6ECEAF2E087EEDF011D928A95E9F72D
:103950001092AB021092AA02109224041092230437
:103960001092280410922704109226041092250425
:1039700010922A041092290410922C0410922B0405
:1039800010922E0410922D041092320410923104E1
:103990001092300410922F041092340410923304C9
:1039A0001092360410923504109202041092010411
:1039B000109204041092030490E080E0DF91CF9114
:1039C0001F910F91FF90EF90DF90CF900895009797
:1039D000F1F0F894A1E3B1E0E5E0F4E030E020E0BC
:1039E0004D915D9148175907A8F0428153814115C7
:1039F000510581F08AE0829FF001839FF00D112430
:103A0000EB5FFB4F80819181009759F4789490E0AF
:103A100080E008952F5F3F4F3A962330310501F73C
:103A2000F5CFDC0111966D917C91718360834150DB
:103A3000510953834283FC012193CF017894089567
:103A4000009749F1DC018E91853041F4E091030447
:103A5000F09104043097F9F0CD0109948530D8F441
:103A6000282F30E0F8948FEF8C938AE0829FF0014A
:103A7000839FF00D1124EB5FFB4F808191811296A3
:103A80009C938E931197B183A08382819381019639
:103A90009383828378940895CF92DF92EF92FF927E
:103AA0000F931F93CF93DF939C018FEA92E08C7F5B
:103AB0004115510509F49BC02115310509F497C042
:103AC0006115710509F493C07A01AB01B9016D5F0D
:103AD0007F4F6C7F9B012F5F3F4F249F8001259F6D
:103AE000100D349F100D1124F8942091230430916F
:103AF0002404232B59F420912B0430912C042115FC
:103B0000310569F12017310708F058C020912D04C4
:103B100030912E04232B91F420912B0430912C040E
:103B2000820F931F20913504309136042115310501
:103B300009F441C02017310708F056C07894CFEF40
:103B4000DFEF86EF9FEFF701D183C083DF91CF9145
:103B50001F910F91FF90EF90DF90CF900895C3E0F9
:103B6000D0E0C090AA02D090AB0224EE30E02C1935
:103B70003D092017310710F32AE02C9FF0012D9FFB
:103B8000F00D1124EB5FFB4F9183808355834483B9
:103B9000538342837783668311870087009709F0F8
:103BA00058DE0C0D1D1D1093AB020093AA027894F1
:103BB00090E080E0C8CFC4E0D0E0D3CFC3E0D0E055
:103BC0002AE02C9FF0012D9FF00D1124EB5FFB4F9D
:103BD00091838083558344835383428377836683B1
:103BE000009729F336DEE3CFC4E0D0E0E9CF8FEFD2
:103BF0009FEFACCF9C010397029708F069C0F8943F
:103C000084E09AE0482F50E0241735070CF44DC0AB
:103C100091E08AE0829FF001839FF00D1124EB5F19
:103C2000FB4F118210821582148213821282178236
:103C300016829923B1F18091230490912404892B59
:103C4000A9F420912B0430912C042115310571F039
:103C50008091AA029091AB02821B930B9093AB02CE
:103C60008093AA0210922C0410922B0480912D04B0
:103C700090912E04892BA9F42091350430913604BB
:103C80002115310571F08091AA029091AB02821B3F
:103C9000930B9093AB028093AA0210923604109279
:103CA0003504789490E080E00895949FF001959F0A
:103CB000F00D1124EB5FFB4F40815181452B31F416
:103CC00040855185452B11F481509CCF90E0A1CFC8
:103CD0008FEF9FEF08954115510549F1009739F194
:103CE0006115710521F1F8942091010430910204CD
:103CF000232BB9F42091030430910404232B89F47D
:103D0000909302048093010470930404609303046D
:103D1000789425E030E090E080E0FA013183208360
:103D2000089578942FEF3FEF86EF9FEFF6CF8FEF58
:103D30009FEF0895059769F4F89410920204109289
:103D400001041092040410920304789490E080E03F
:103D500008958FEF9FEF08956115710519F4F0E054
:103D6000E0E011C08530910581F4E0910104F0910B
:103D700002043097A1F3CB0101960995009779F3DE
:103D8000FC0185E08193CF0108959C012350310906
:103D90002230310520F72AE0289FD001299FB00D5D
:103DA0001124AB5FBB4F2D913C911197232BB9F29E
:103DB00016962D913C9117972617370780F2F894A5
:103DC00012962D913C9113972115310529F0ED9113
:103DD000FC911197309711F47894C1CF41815281B1
:103DE00011965C934E932150310913963C932E9378
:103DF000129781937894C7CFE3E9F3E08EE6DF0171
:103E00001D928A95E9F7ECEAF2E087EEDF011D9258
:103E10008A95E9F71092AB021092AA02E5E0F4E06D
:103E200082E3DF011D928A95E9F7E1E0F4E084E0A6
:103E3000DF011D928A95E9F790E080E00895CF9325
:103E4000DF93C0913701D0913801CF3FDC0759F49F
:103E500007D4909338018093370197FF09C0D0931E
:103E60003801C093370184EF9FEFDF91CF91089520
:103E700090E080E0FACF8230910528F480933704F7
:103E800090E080E008958FEF9FEF08954F925F924A
:103E90006F927F92AF92BF92CF92DF92EF92FF929A
:103EA0000F931F93CF93DF9300D0CDB7DEB71A8265
:103EB0001982009709F478C06115710509F474C07E
:103EC000209137013091380107EF1FEF2F3F3F4F0F
:103ED00009F444C06B015C01412C512C3201F12CDE
:103EE000E12C10E000E09E012F5F3F4FA6014E192C
:103EF0005F09B5016E0D7F1D8091370190913801EA
:103F00000ED4892B09F04AC089819A81009741F427
:103F1000E114F10429F420913704222309F441C06B
:103F2000E80EF91EEC14FD04C8F480E8481684E895
:103F300058068EE16806710418F560E070E0CB0168
:103F400055D72AE0420E511C611C711C0A3F4FEFED
:103F5000140721F0043F8FEF1807A1F4C8010F9058
:103F60000F90DF91CF911F910F91FF90EF90DF9015
:103F7000CF90BF90AF907F906F905F904F900895DB
:103F800001EF1FEF81E090E0013F2FEF120711F0EA
:103F900090E080E0892B09F4A6CFE0CF04EF1FEF7B
:103FA000DDCF0AEF1FEFDACF0FEF1FEFD7CF4F9222
:103FB0005F926F927F92AF92BF92CF92DF92EF9219
:103FC000FF920F931F93CF93DF9300D0CDB7DEB74F
:103FD0001A821982009709F478C06115710509F4F5
:103FE00074C0209137013091380107EF1FEF2F3F48
:103FF0003F4F09F444C06B015C01412C512C32014C
:10400000F12CE12C10E000E09E012F5F3F4FA60154
:104010004E195F09B5016E0D7F1D8091370190919A
:10402000380133D3892B09F04AC089819A810097DE
:1040300041F4E114F10429F420913704222309F416
:1040400041C0E80EF91EEC14FD04C8F480E44816E3
:1040500082E458068FE06806710418F560E070E0AD
:10406000CB01C4D62AE0420E511C611C711C0E3FCC
:104070004FEF140721F0043F8FEF1807A1F4C80198
:104080000F900F90DF91CF911F910F91FF90EF90C4
:10409000DF90CF90BF90AF907F906F905F904F90E8
:1040A000089502EF1FEF81E090E0023F2FEF12072B
:1040B00011F090E080E0892B09F4A6CFE0CF04EF67
:1040C0001FEFDDCF0EEF1FEFDACF0FEF1FEFD7CFD0
:1040D00080913701909138018F3F980749F0B8D20D
:1040E000892B49F48FEF9FEF90933801809337012C
:1040F00090E080E0089584EF9FEF0895CF92DF92E3
:10410000EF92FF920F931F93CF93DF9321E041151E
:10411000510509F020E04150510921112CC0DC016A
:10412000FB01D12CC12C21E022C03FEFC31AD30ADE
:104130007D010D911D91E701EA80FB80E016F106FB
:10414000A8F420813181E280F380F182E082338320
:104150002283ED90FC9011979D0122503109E901D5
:10416000F982E88211961C930E9320E03296C416D1
:10417000D506D8F2D2CFDF91CF911F910F91FF904A
:10418000EF90DF90CF900895FC01680F791F90E0C9
:1041900080E0E617F70709F408952191820F911D39
:1041A000F8CF20913804211113C049DE009791F413
:1041B00010923E0410923D0410923C0410923B0475
:1041C00010923A041092390421E0209338040895A3
:1041D00084EF9FEF0895AF92BF92CF92DF92EF925C
:1041E000FF920F931F93CF93DF93009709F460C062
:1041F0004630510508F45CC020913804C7EFDFEF6A
:10420000222309F449C08C01060F171FF801C08052
:10421000D180C114D10409F44EC096012A5F3F4FEA
:104220004217530708F447C07C0180913D049091E8
:104230003E0493838283B6016C5F7F4F5801A60EC4
:10424000B71EC801A1DFF5019183808364E070E0AF
:10425000C8011CDEEC01892BF9F481E090E00BDE53
:10426000B601C801049612DEEC01892B91F462E0DC
:1042700070E0C5010BDEEC01892B59F4C701E0DBCE
:1042800080913D0490913E04019690933E0480936A
:104290003D0490E080E0EFDDCE01DF91CF911F91F2
:1042A0000F91FF90EF90DF90CF90BF90AF90089567
:1042B000CFEFDFEFF1CFC9EFDFEFEECF6F927F925D
:1042C0008F929F92AF92BF92CF92DF92EF92FF9226
:1042D0000F931F93CF93DF9300D000D0CDB7DEB7FD
:1042E000009709F47AC04115510509F476C0209170
:1042F000380407EF1FEF222309F44DC03A017B0178
:104300005C0164E070E0CE01019651DE8C01892BE6
:1043100009F041C009811A810115110509F45AC03B
:10432000480186E0880E911CB701680D791D8091C7
:10433000390190913A0110DD6C01009709F450C0E9
:10434000A70170E060E00E944E2A89819A81AB81CA
:10435000BC81EC0CFD1CF70181939193A193B19367
:104360007F0181E090E087DDB801C70120DE892B65
:1043700031F562E070E0C701800F911F18DE8C01FB
:10438000892BE9F490E080E076DDF501D182C082EE
:10439000F30191828082C8010F900F900F900F90CF
:1043A000DF91CF911F910F91FF90EF90DF90CF9011
:1043B000BF90AF909F908F907F906F90089590E006
:1043C00080E059DDF50111821082F3011182108223
:1043D000C60136DB09EF1FEFDECF0FEF1FEFDBCF9C
:1043E00006EF1FEFD8CF0097A1F04115510589F0D6
:1043F0002115310571F0F90136966E177F0748F0E7
:10440000DC012D933C93DA01ED93FC9390E080E086
:1044100008958FEF9FEF0895AF92BF92CF92DF92F2
:10442000EF92FF920F931F93CF93DF93009709F4BE
:104430005FC04115510509F45BC06530710508F492
:1044400057C020913804C7EFDFEF222391F1DC0140
:10445000CD90DC9011971296ED91FC9196012A5F18
:104460003F4FC9EFDFEF2617370719F5C091390421
:10447000D0913A04209749F521E030E030933A0496
:10448000209339047A018C01F0933C04E0933B04BF
:104490005601B4E0AB0EB11CB50176DE0A0D1B1D52
:1044A000F801208131818217930729F5D701CD9238
:1044B000DC92CE01DF91CF911F910F91FF90EF9091
:1044C000DF90CF90BF90AF90089520913B04309142
:1044D0003C042F5F3F4FCCEFDFEFE217F30790F282
:1044E000CBEFDFEF2E173F0768F2D0E0C0E0CACF76
:1044F000CFEFDFEFDECFC3EFDFEFDBCF84E090E085
:10450000089582E090E008958CEF9FEF089580E297
:1045100090E0089510923E0410923D0410923C04E5
:1045200010923B0410923A041092390490E080E01B
:10453000089590933A018093390108958091380449
:10454000882391F0C5DD009789F410923E04109203
:104550003D0410923C0410923B0410923A041092D5
:10456000390410923804089590E080E0089500978F
:1045700049F06115710531F0FC0111821082FB01D7
:10458000118210820895F3CF26E030E040E855E232
:1045900060E070E090E080E000C0892B19F48CE4CA
:1045A00094E00CC608951F920F920FB60F9211243B
:1045B0002F933F934F935F936F937F938F939F932B
:1045C000AF93BF93EF93FF9386E09FEF90938500A7
:1045D00080938400B7D0FF91EF91BF91AF919F91ED
:1045E0008F917F916F915F914F913F912F910F909C
:1045F0000FBE0F901F90189586E09FEF9093850057
:1046000080938400AFE6B0E08C918E7F8C93E0E8DD
:10461000F0E080818C7F8083E1E8F0E08081877E1C
:10462000808380818360808380818B7F80838C9175
:1046300081608C930895EFE6F0E0808190819E7F09
:1046400090838170089581E0089510923F04089549
:1046500068EE73E080E090E0C9D390E080E00895D8
:1046600026E030E040E052EC61E070E090E080E075
:1046700094DF8CE494E0D8D4892B21F08CE494E08E
:10468000EDD4F7CF90E080E00895CF92DF92EF92E3
:10469000FF920F931F93CF93DF936B017A01E90190
:1046A000198218828CE494E0BFD4892B69F18601C9
:1046B000CC24C39482E0D82E80913F04811110C095
:1046C0008CE494E0CBD40297B9F7C0923F04F80190
:1046D000D1928F0188819981019699838883ECCF4B
:1046E000888199818E159F0578F48CE494E0B6D486
:1046F0008F3F9807A9F3F80181938F0188819981F1
:10470000019699838883ECCF90E080E0DF91CF9190
:104710001F910F91FF90EF90DF90CF9008950F932E
:104720001F93CF93DF93EA0189018CE494E02AD6AA
:10473000F801D183C08390E080E0DF91CF911F9199
:104740000F910895CF92DF92EF92FF92CF93DF9374
:104750008091400491E0980F90934004882379F071
:1047600021E030E0309342042093410480934004E0
:10477000DF91CF91FF90EF90DF90CF9008957894E4
:10478000C0913D01D0913E016E8D7F8D88A199A190
:1047900052D120E030E040E85FE456D26B017C016A
:1047A0006A8D7B8D8C8D9D8D46D19B01AC01C7019F
:1047B000B6019AD014D16B017C010E94F002B701BE
:1047C000A60190E080E00E941402F89480914004D9
:1047D0008150CCCF0F931F93CF93DF9310920C0592
:1047E00010920B0539D3D0DEC0913D01D0913E012E
:1047F0001982188260E177E280E090E00E949602E0
:1048000070E060E090E080E00E941801009709F0FD
:104810003AC00E940104F8947894BE016A5D7F4F0B
:104820008A819B810E941B01892B59F46FEF7FEFD6
:10483000CB010E94AA010E949002882311F081E01E
:104840008AA7F894D9DE0E949302882311F080E0B1
:1048500008C00E9490028111FACF81E09AA59111BF
:10486000F6CF80930B0578940E94E70A8C01789428
:1048700080910B0581110CC00E94A0040E94760259
:10488000F89490E080E0DF91CF911F910F9108950F
:104890000E9474020E9493028823D9F081E08093E1
:1048A0000C0590910C0581E0911180E080930B053F
:1048B00080910C058111BFDE0130110529F40E94A1
:1048C000E70A892B09F4C1DE0E94E70A8C01BBDEEE
:1048D000CFCF0E9490028111E1CF81E09AA5911182
:1048E000DECF80E0DCCF5058BB27AA270ED057C1BF
:1048F00048D130F04DD120F031F49F3F11F41EF437
:104900003DC10EF4E095E7FB0AC1E92F59D180F3D0
:10491000BA17620773078407950718F071F49EF5BC
:1049200088C10EF4E0950B2EBA2FA02D0B01B90112
:1049300090010C01CA01A0011124FF27591B99F015
:10494000593F50F4503E68F11A16F040A22F232F21
:10495000342F4427585FF3CF469537952795A79571
:10496000F0405395C9F77EF41F16BA0B620B730B18
:10497000840BBAF09150A1F0FF0FBB1F661F771F89
:10498000881FC2F70EC0BA0F621F731F841F48F43E
:10499000879577956795B795F7959E3F08F0B3CFC4
:1049A0009395880F08F09927EE0F979587950895AE
:1049B00029D180F09F3740F491110EF43BC160E0A3
:1049C00070E080E89FE3089526F01B16611D711DBD
:1049D000811DABC0C5C07FD008F481E00895F8D038
:1049E00088F09F5790F0B92F9927B751A0F0D1F0D8
:1049F000660F771F881F991F1AF0BA95C9F712C062
:104A0000B13081F016D1B1E0089513C1672F782F2E
:104A10008827B85F39F0B93FCCF3869577956795CD
:104A2000B395D9F73EF490958095709561957F4F39
:104A30008F4F9F4F0895E89409C097FB3EF49095DF
:104A40008095709561957F4F8F4F9F4F9923A9F067
:104A5000F92F96E9BB279395F695879577956795F6
:104A6000B795F111F8CFFAF4BB0F11F460FF1BC03A
:104A70006F5F7F4F8F4F9F4F16C0882311F096E9CD
:104A800011C0772321F09EE8872F762F05C066237B
:104A900071F096E8862F70E060E02AF09A95660F34
:104AA000771F881FDAF7880F9695879597F90895ED
:104AB000A9D080F09F3740F491110EF0BBC060E0A8
:104AC00070E080E89FEB089526F41B16611D711DB0
:104AD000811D2BC045C0990F0008550FAA0BE0E8B7
:104AE000FEEF16161706E807F907C0F012161306B0
:104AF000E407F50798F0621B730B840B950B39F4F0
:104B00000A2661F0232B242B252B21F408950A2655
:104B100009F4A140A6958FEF811D811D089597F995
:104B20009F6780E870E060E00895882371F4772340
:104B300021F09850872B762F07C0662311F4992710
:104B40000DC09051862B70E060E02AF09A95660FB8
:104B5000771F881FDAF7880F9695879597F908953C
:104B60009F3F31F0915020F4879577956795B795E1
:104B7000880F911D9695879597F908959FEF80EC82
:104B8000089500240A9416161706180609060895B3
:104B900000240A9412161306140605060895092E19
:104BA0000394000C11F4882352F0BB0F40F4BF2B88
:104BB00011F460FF04C06F5F7F4F8F4F9F4F0895C8
:104BC00057FD9058440F551F59F05F3F71F04795BE
:104BD000880F97FB991F61F09F3F79F087950895A3
:104BE000121613061406551FF2CF4695F1DF08C0C2
:104BF000161617061806991FF1CF869571056105DF
:104C000008940895E5DFA0F0BEE7B91788F4BB2744
:104C10009F3860F41616B11D672F782F8827985F8C
:104C2000F7CF869577956795B11D93959639C8F31B
:104C30000895E894BB2766277727CB0197F9089555
:104C40004ADF08F48FEF08950BD0A9CF9ADF28F040
:104C50009FDF18F0952309F062CF90CF1124EACF9F
:104C6000AFDFA0F3959FD1F3950F50E0551F629FE2
:104C7000F001729FBB27F00DB11D639FAA27F00DB5
:104C8000B11DAA1F649F6627B00DA11D661F829FDC
:104C90002227B00DA11D621F739FB00DA11D621FC1
:104CA000839FA00D611D221F749F3327A00D611DDE
:104CB000231F849F600D211D822F762F6A2F1124C0
:104CC0009F5750408AF0E1F088234AF0EE0FFF1F13
:104CD000BB1F661F771F881F91505040A9F79E3F4A
:104CE000510570F01CCFA6CF5F3FECF3983EDCF38C
:104CF000869577956795B795F795E7959F5FC1F787
:104D0000FE2B880F911D9695879597F908951F9210
:104D10000F920FB60F9211242F933F938F939F936F
:104D2000AF93BF938091440490914504A0914604B1
:104D3000B09147043091430423E0230F2D3758F5F9
:104D40000196A11DB11D20934304809344049093C8
:104D50004504A0934604B093470480914804909181
:104D60004904A0914A04B0914B040196A11DB11DC4
:104D70008093480490934904A0934A04B0934B0451
:104D8000BF91AF919F918F913F912F910F900FBE47
:104D90000F901F90189526E8230F0296A11DB11DB4
:104DA000D2CF3FB7F8948091480490914904A091E4
:104DB0004A04B0914B0426B5A89B05C02F3F19F0BB
:104DC0000196A11DB11D3FBFBA2FA92F982F88278B
:104DD000BC01CD01620F711D811D911D42E0660F66
:104DE000771F881F991F4A95D1F708958F929F9238
:104DF000AF92BF92CF92DF92EF92FF926B017C0154
:104E0000D0DF4B015C01C114D104E104F104D9F0FD
:104E1000E6D2C7DF681979098A099B09683E7340A1
:104E20008105910580F321E0C21AD108E108F1085B
:104E300088EE880E83E0981EA11CB11CC114D10419
:104E4000E104F10431F7FF90EF90DF90CF90BF9035
:104E5000AF909F908F900895789484B5826084BDC0
:104E600084B5816084BD85B5826085BD85B581606E
:104E700085BDEEE6F0E0808181608083E1E8F0E0CE
:104E80001082808182608083808181608083E0E8FD
:104E9000F0E0808181608083E1EBF0E080818460DC
:104EA0008083E0EBF0E0808181608083EAE7F0E0DE
:104EB0008081846080838081826080838081816042
:104EC00080838081806880831092C10008958E3035
:104ED00008F08E5020913B0190E4299F900111240D
:104EE0008770822B80937C0080917A00806480930D
:104EF0007A0080917A0086FDFCCF809178009091B5
:104F000079000895833081F028F4813099F082305F
:104F1000A9F008958730A9F08830C9F08430B1F441
:104F2000809180008F7D03C0809180008F77809377
:104F30008000089584B58F7784BD089584B58F7DF2
:104F4000FBCF8091B0008F778093B000089580915F
:104F5000B0008F7DF9CFCF93DF9390E0FC01E45850
:104F6000FF4F249180579F4FFC0184918823C9F003
:104F700090E0880F991FFC01E255FF4FA591B49175
:104F8000FC01EC55FF4FC591D49161110DC09FB745
:104F9000F8948C91209582238C93888128232883F0
:104FA0009FBFDF91CF910895623051F49FB7F8947D
:104FB0003C91822F809583238C93E8812E2BEFCF19
:104FC0008FB7F894EC912E2B2C938FBFEACF1F93C1
:104FD000CF93DF93282F30E0F901E859FF4F8491F8
:104FE000F901E458FF4FD491F901E057FF4FC49104
:104FF000CC23A1F0162F811185DFEC2FF0E0EE0F0E
:10500000FF1FEC55FF4FA591B4918FB7F894EC9129
:10501000111108C0D095DE23DC938FBFDF91CF91B3
:105020001F910895DE2BF8CFFC01918D228D892FE1
:1050300090E0805C9F4F821B91098F7399270895A0
:10504000FC01918D828D981731F0828DE80FF11D52
:10505000858D90E008958FEF9FEF0895FC01918D6D
:10506000828D981761F0A28DAE0FBF2FB11D5D9696
:105070008C91928D9F5F9F73928F90E008958FEF38
:105080009FEF0895FC01538D448D252F30E0842F30
:1050900090E0821B930B541710F0CF960895019760
:1050A0000895FC01A48DA80FB92FB11DA35ABF4FBD
:1050B0002C91848D90E001968F739927848FA68917
:1050C000B7892C93A089B1898C91837080648C936B
:1050D000938D848D981306C00288F389E02D80811A
:1050E0008F7D80830895CF93DF93EC01888D882393
:1050F000B1F0AA89BB89E889F9898C9185FD03C043
:10510000808186FD0CC00FB607FCF7CF8C9185FF20
:10511000F2CF808185FFEDCFCE01C3DFEACFDF91F3
:10512000CF910895EF92FF920F931F93CF93DF9348
:10513000EC0181E0888F9B8D8C8D98131AC0E889D3
:10514000F989808185FF15C09FB7F894EE89FF89A2
:105150006083E889F98980818370806480839FBF40
:1051600081E090E0DF91CF911F910F91FF90EF9040
:105170000895F62E0B8D10E00F5F1F4F0F73112750
:10518000E02E8C8D8E110BC00FB607FCFACFE8898C
:10519000F989808185FFF5CFCE0183DFF2CFEB8DDA
:1051A000EC0FFD2FF11DE35AFF4FF0829FB7F894EB
:1051B0000B8FEA89FB8980818062D0CFCF92DF920A
:1051C000EF92FF921F93CF93DF93EC016A017B0173
:1051D000122FE889F98982E08083C11481EED80614
:1051E000E104F10499F060E079E08DE390E0A7013B
:1051F00096010AD121503109410951095695479527
:1052000037952795211580E1380790F0E889F989CD
:10521000108260E874E88EE190E0A7019601F4D076
:1052200021503109410951095695479537952795E0
:10523000EC85FD853083EE85FF852083188EEC8913
:10524000FD891083EA89FB89808180618083EA89F6
:10525000FB89808188608083EA89FB8980818068FE
:105260008083EA89FB8980818F7D8083DF91CF9164
:105270001F91FF90EF90DF90CF9008951F920F92B3
:105280000FB60F9211242F938F939F93EF93FF9359
:10529000E0915C04F0915D048081E0916204F09102
:1052A000630482FD1BC09081809165048F5F8F73C2
:1052B00020916604821741F0E0916504F0E0E45B20
:1052C000FB4F958F80936504FF91EF919F918F9194
:1052D0002F910F900FBE0F901F9018958081F4CFE3
:1052E0001F920F920FB60F9211242F933F934F935B
:1052F0005F936F937F938F939F93AF93BF93EF933E
:10530000FF938CE494E0CDDEFF91EF91BF91AF91DC
:105310009F918F917F916F915F914F913F912F91CD
:105320000F900FBE0F901F901895ECE4F4E01382DD
:10533000128288EE93E0A0E0B0E084839583A68398
:10534000B78381EC91E09183808385EC90E0958731
:10535000848784EC90E09787868780EC90E0918B3F
:10536000808B81EC90E0938B828B82EC90E0958B2C
:10537000848B86EC90E0978B868B118E128E138E29
:10538000148E0895AF92BF92CF92DF92EF92FF9268
:105390000F931F93CF93DF936C017B018B01040F5D
:1053A000151FEB015E01AE18BF08C017D10759F0F9
:1053B0006991D601ED91FC910190F081E02DC6013B
:1053C0000995892B79F7C501DF91CF911F910F9135
:1053D000FF90EF90DF90CF90BF90AF900895089529
:1053E000AA1BBB1B51E107C0AA1FBB1FA617B7070B
:1053F00010F0A61BB70B881F991F5A95A9F7809527
:105400009095BC01CD010895A1E21A2EAA1BBB1BE9
:10541000FD010DC0AA1FBB1FEE1FFF1FA217B30780
:10542000E407F50720F0A21BB30BE40BF50B661F96
:10543000771F881F991F1A9469F76095709580955A
:1054400090959B01AC01BD01CF010895EE0FFF1FA8
:105450000590F491E02D0994A29FB001B39FC00183
:10546000A39F700D811D1124911DB29F700D811D90
:105470001124911D0895F0DFA59F900DB49F900D0C
:10548000A49F800D911D11240895FB01DC0102C031
:1054900001900D9241505040D8F70895DC0101C0B1
:0E54A0006D9341505040E0F70895F894FFCF0F
:1054AE006F12833A0000803F000000000000A04011
:1054BE0028A0FEFFFFFF01E8030000FFFF00000031
:1054CE0000FFFFFFFFFFFFFFFFFFFF0100010001D5
:1054DE0000200038001000FFFFFFFF0101EF01FF69
:1054EE00003E0D6A0DFE00240DA50AFD00B60C103F
:1054FE000DFC00FC0CA50AF600ED0DA50AF500C387
:10550E000C2C0EF400B60D430EDE0069120215DDF2
:10551E0000D813A50ADA0013101B10D9001D152B85
:10552E0010E200FB0EA50AE100360FA50AE000AB63
:10553E000FA50AD6000119A50AD500B811A50AD4DF
:10554E00004411A50AD300B510A50AC0003A10A553
:10555E000AF0006A19A50AED002719A50A00000035
:10556E00009228C2294228732814282E28202800A9
:00000001FF
